{
  "transactions": [
    {
      "hash": "0x6a3a5efba8580c63e80a6767cde0ec2fc5f96c22de58a44abdb50e6df9cea251",
      "transactionType": "CALL",
      "contractName": "CCIPTokenAndDataReceiver",
      "contractAddress": "0xE44aa81Fe6eBb8395BdF320D4BD58E2551dbf2b2",
      "function": "whitelistSender(address)",
      "arguments": [
        "0xDBFdfACAAfbF538cFd8EC39eE985ACf6758cfC5A"
      ],
      "transaction": {
        "type": "0x02",
        "from": "0x847f115314b635f58a53471768d14e67e587cb56",
        "to": "0xe44aa81fe6ebb8395bdf320d4bd58e2551dbf2b2",
        "gas": "0xf917",
        "value": "0x0",
        "data": "0x2f10a6c6000000000000000000000000dbfdfacaafbf538cfd8ec39ee985acf6758cfc5a",
        "nonce": "0x34",
        "accessList": []
      },
      "additionalContracts": [],
      "isFixedGasLimit": false
    },
    {
      "hash": "0x0477689895eb02893cf0257d61f3736c59c49cce63827004e74d117db6bcc896",
      "transactionType": "CALL",
      "contractName": "CCIPTokenAndDataReceiver",
      "contractAddress": "0xE44aa81Fe6eBb8395BdF320D4BD58E2551dbf2b2",
      "function": "whitelistSourceChain(uint64)",
      "arguments": [
        "14767482510784806043"
      ],
      "transaction": {
        "type": "0x02",
        "from": "0x847f115314b635f58a53471768d14e67e587cb56",
        "to": "0xe44aa81fe6ebb8395bdf320d4bd58e2551dbf2b2",
        "gas": "0x8d15",
        "value": "0x0",
        "data": "0x7736035b000000000000000000000000000000000000000000000000ccf0a31a221f3c9b",
        "nonce": "0x35",
        "accessList": []
      },
      "additionalContracts": [],
      "isFixedGasLimit": false
    }
  ],
  "receipts": [
    {
      "transactionHash": "0x6a3a5efba8580c63e80a6767cde0ec2fc5f96c22de58a44abdb50e6df9cea251",
      "transactionIndex": "0x2",
      "blockHash": "0x7472e096cb98f8034a8bd6a3ce7711e7119f6ae95e11481911b77d2583fb9d90",
      "blockNumber": "0x3e9c34",
      "from": "0x847F115314b635F58A53471768D14E67e587cb56",
      "to": "0xE44aa81Fe6eBb8395BdF320D4BD58E2551dbf2b2",
      "cumulativeGasUsed": "0xb397f",
      "gasUsed": "0xb457",
      "contractAddress": null,
      "logs": [],
      "status": "0x1",
      "logsBloom": "0x00000000000000000000000000000000000000000000000000000000000000000000000000000000000000000000000000000000000000000000000000000000000000000000000000000000000000000000000000000000000000000000000000000000000000000000000000000000000000000000000000000000000000000000000000000000000000000000000000000000000000000000000000000000000000000000000000000000000000000000000000000000000000000000000000000000000000000000000000000000000000000000000000000000000000000000000000000000000000000000000000000000000000000000000000000000",
      "type": "0x2",
      "effectiveGasPrice": "0xbfd3663c"
    },
    {
      "transactionHash": "0x0477689895eb02893cf0257d61f3736c59c49cce63827004e74d117db6bcc896",
      "transactionIndex": "0x3",
      "blockHash": "0x7472e096cb98f8034a8bd6a3ce7711e7119f6ae95e11481911b77d2583fb9d90",
      "blockNumber": "0x3e9c34",
      "from": "0x847F115314b635F58A53471768D14E67e587cb56",
      "to": "0xE44aa81Fe6eBb8395BdF320D4BD58E2551dbf2b2",
      "cumulativeGasUsed": "0xb9fa4",
      "gasUsed": "0x6625",
      "contractAddress": null,
      "logs": [],
      "status": "0x1",
      "logsBloom": "0x00000000000000000000000000000000000000000000000000000000000000000000000000000000000000000000000000000000000000000000000000000000000000000000000000000000000000000000000000000000000000000000000000000000000000000000000000000000000000000000000000000000000000000000000000000000000000000000000000000000000000000000000000000000000000000000000000000000000000000000000000000000000000000000000000000000000000000000000000000000000000000000000000000000000000000000000000000000000000000000000000000000000000000000000000000000",
      "type": "0x2",
      "effectiveGasPrice": "0xbfd3663c"
    }
  ],
  "libraries": [],
  "pending": [],
  "returns": {},
  "timestamp": 1692225040,
  "chain": 11155111,
  "multi": false,
  "commit": "2890f86"
}