{
  "transactions": [
    {
      "hash": "0x21d6ef4483e99efcc1bc10121b4a278afbce40231c90aa3f9f6f42cc94aeec4b",
      "transactionType": "CALL",
      "contractName": "CCIPTokenAndDataReceiver",
      "contractAddress": "0xEf06311F3019AE44A3e3A1acf8b5cCbfB8D7d84f",
      "function": "whitelistSourceChain(uint64)",
      "arguments": [
        "14767482510784806043"
      ],
      "transaction": {
        "type": "0x02",
        "from": "0x847f115314b635f58a53471768d14e67e587cb56",
        "to": "0xef06311f3019ae44a3e3a1acf8b5ccbfb8d7d84f",
        "gas": "0x10712",
        "value": "0x0",
        "data": "0x7736035b000000000000000000000000000000000000000000000000ccf0a31a221f3c9b",
        "nonce": "0x2e",
        "accessList": []
      },
      "additionalContracts": [],
      "isFixedGasLimit": false
    }
  ],
  "receipts": [
    {
      "transactionHash": "0x21d6ef4483e99efcc1bc10121b4a278afbce40231c90aa3f9f6f42cc94aeec4b",
      "transactionIndex": "0x3",
      "blockHash": "0xa4d9a569b9e754be0876afaf5ed65be1bd0a5953f7d3cc5d48a1783272bb6448",
      "blockNumber": "0x3e9b70",
      "from": "0x847F115314b635F58A53471768D14E67e587cb56",
      "to": "0xEf06311F3019AE44A3e3A1acf8b5cCbfB8D7d84f",
      "cumulativeGasUsed": "0x1a4f57",
      "gasUsed": "0xb3e1",
      "contractAddress": null,
      "logs": [],
      "status": "0x1",
      "logsBloom": "0x00000000000000000000000000000000000000000000000000000000000000000000000000000000000000000000000000000000000000000000000000000000000000000000000000000000000000000000000000000000000000000000000000000000000000000000000000000000000000000000000000000000000000000000000000000000000000000000000000000000000000000000000000000000000000000000000000000000000000000000000000000000000000000000000000000000000000000000000000000000000000000000000000000000000000000000000000000000000000000000000000000000000000000000000000000000",
      "type": "0x2",
      "effectiveGasPrice": "0xbf4179b2"
    }
  ],
  "libraries": [],
  "pending": [],
  "returns": {},
  "timestamp": 1692222210,
  "chain": 11155111,
  "multi": false,
  "commit": "2890f86"
}