{
  "transactions": [
    {
      "hash": "0x5779f036a9c7f9a27936176a28b23a2f6f004e07b3820a217e59863e91e55c68",
      "transactionType": "CALL",
      "contractName": "CCIPTokenAndDataReceiver",
      "contractAddress": "0xE44aa81Fe6eBb8395BdF320D4BD58E2551dbf2b2",
      "function": "whitelistSender(address)",
      "arguments": [
        "0x24B15A2C5f9C561b3c743EE51BE03FF655be6452"
      ],
      "transaction": {
        "type": "0x02",
        "from": "0x847f115314b635f58a53471768d14e67e587cb56",
        "to": "0xe44aa81fe6ebb8395bdf320d4bd58e2551dbf2b2",
        "gas": "0xf917",
        "value": "0x0",
        "data": "0x2f10a6c600000000000000000000000024b15a2c5f9c561b3c743ee51be03ff655be6452",
        "nonce": "0x32",
        "accessList": []
      },
      "additionalContracts": [],
      "isFixedGasLimit": false
    },
    {
      "hash": "0xa5358b23e3d792a8b089529c131bf5b26b1b37ff1519e0a091369f886763105c",
      "transactionType": "CALL",
      "contractName": "CCIPTokenAndDataReceiver",
      "contractAddress": "0xE44aa81Fe6eBb8395BdF320D4BD58E2551dbf2b2",
      "function": "whitelistSourceChain(uint64)",
      "arguments": [
        "14767482510784806043"
      ],
      "transaction": {
        "type": "0x02",
        "from": "0x847f115314b635f58a53471768d14e67e587cb56",
        "to": "0xe44aa81fe6ebb8395bdf320d4bd58e2551dbf2b2",
        "gas": "0x10712",
        "value": "0x0",
        "data": "0x7736035b000000000000000000000000000000000000000000000000ccf0a31a221f3c9b",
        "nonce": "0x33",
        "accessList": []
      },
      "additionalContracts": [],
      "isFixedGasLimit": false
    }
  ],
  "receipts": [
    {
      "transactionHash": "0x5779f036a9c7f9a27936176a28b23a2f6f004e07b3820a217e59863e91e55c68",
      "transactionIndex": "0x5",
      "blockHash": "0xc062962822e7c680bb7d4363f0d109de9cddf6d48264b585917b3c8b86df4d59",
      "blockNumber": "0x3e9bc8",
      "from": "0x847F115314b635F58A53471768D14E67e587cb56",
      "to": "0xE44aa81Fe6eBb8395BdF320D4BD58E2551dbf2b2",
      "cumulativeGasUsed": "0x918b7",
      "gasUsed": "0xb457",
      "contractAddress": null,
      "logs": [],
      "status": "0x1",
      "logsBloom": "0x00000000000000000000000000000000000000000000000000000000000000000000000000000000000000000000000000000000000000000000000000000000000000000000000000000000000000000000000000000000000000000000000000000000000000000000000000000000000000000000000000000000000000000000000000000000000000000000000000000000000000000000000000000000000000000000000000000000000000000000000000000000000000000000000000000000000000000000000000000000000000000000000000000000000000000000000000000000000000000000000000000000000000000000000000000000",
      "type": "0x2",
      "effectiveGasPrice": "0xbee4708a"
    },
    {
      "transactionHash": "0xa5358b23e3d792a8b089529c131bf5b26b1b37ff1519e0a091369f886763105c",
      "transactionIndex": "0x6",
      "blockHash": "0xc062962822e7c680bb7d4363f0d109de9cddf6d48264b585917b3c8b86df4d59",
      "blockNumber": "0x3e9bc8",
      "from": "0x847F115314b635F58A53471768D14E67e587cb56",
      "to": "0xE44aa81Fe6eBb8395BdF320D4BD58E2551dbf2b2",
      "cumulativeGasUsed": "0x9cc98",
      "gasUsed": "0xb3e1",
      "contractAddress": null,
      "logs": [],
      "status": "0x1",
      "logsBloom": "0x00000000000000000000000000000000000000000000000000000000000000000000000000000000000000000000000000000000000000000000000000000000000000000000000000000000000000000000000000000000000000000000000000000000000000000000000000000000000000000000000000000000000000000000000000000000000000000000000000000000000000000000000000000000000000000000000000000000000000000000000000000000000000000000000000000000000000000000000000000000000000000000000000000000000000000000000000000000000000000000000000000000000000000000000000000000",
      "type": "0x2",
      "effectiveGasPrice": "0xbee4708a"
    }
  ],
  "libraries": [],
  "pending": [],
  "returns": {},
  "timestamp": 1692223529,
  "chain": 11155111,
  "multi": false,
  "commit": "2890f86"
}